:060000000A128A110E280D
:10000800FE00030EF7000408F8000A08F9000A12B7
:100018008A11B1290A128A1111288317EE30FD00BE
:100028000230FE00F730FF00903084000A128A1177
:1000380046240A128A118313C730FD000330FE00DC
:10004800C330FF00A03084000A128A1146240A1225
:100058008A114330FD000330FE00EA30FF002030F3
:1000680084000A128A1146240A128A11C301C401A3
:10007800C501C601C701C801C901CA01CB01FA01FE
:10008800FB01FC01FD0183010A128A114B280A12A7
:100098008A1194230A128A11213083120313D10082
:1000A8007530D000D00B5628D10B56285B287A081B
:1000B8007B04031D60286128AB28831203130C1EE0
:1000C800662867289829C701C80193284708C33EAE
:1000D800840083170008D0005008CB004B08990013
:1000E800C330CC000130CD000A128A110D240A1247
:1000F8008A118312031348084D06031D85284708F3
:100108004C06031D882889288D280130FA00003004
:10011800FB000130C7070318C80A0030C807C330FE
:10012800CC000130CD000A128A110D240A128A115E
:100138008312031348084D02031DA42847084C02E4
:100148000318A728A8286A280D3099009829023092
:100158007A067B04031DB128B228FA2883120313F8
:100168000C1EB728B8289829C701C801E4284708F1
:10017800903E840083170008D0005008CB004B083D
:1001880099009030CC000130CD000A128A110D245C
:100198000A128A118312031348084D06031DD62834
:1001A80047084C06031DD928DA28DE28FA01FB0186
:1001B8000D3099000130C7070318C80A0030C80776
:1001C8009030CC000130CD000A128A110D240A1299
:1001D8008A118312031348084D02031DF5284708A6
:1001E8004C020318F828F928BB28A82803307A06F7
:1001F8007B04031D002901294929831203130C1EBE
:10020800062907299829C701C80133294708A03EAC
:10021800840083130008D0005008CB004B089900D5
:10022800A030CC000030CD000A128A110D240A1229
:100238008A118312031348084D06031D2529470810
:100248004C06031D282929292D290530FA000030DC
:10025800FB000130C7070318C80A0030C807A030E0
:10026800CC000030CD000A128A110D240A128A111E
:100278008312031348084D02031D442947084C0202
:100288000318472948290A29A82806307A067B0432
:10029800031D4F2950299829831203130C1E552931
:1002A80056299829C701C80182294708203E840099
:1002B80083130008D0005008CB004B089900203069
:1002C800CC000030CD000A128A110D240A128A11BE
:1002D8008312031348084D06031D742947084C066A
:1002E800031D772978297C29FA01FB010D30990033
:1002F8000130C7070318C80A0030C8072030CC00EF
:100308000030CD000A128A110D240A128A118312B4
:10031800031348084D02031D932947084C0203188C
:10032800962997295929A8280330831203134506CB
:100338004604031DA029A1295028C501C601FA01B8
:10034800FB01C301C4010C1EAA29AB2950280D309A
:10035800990050280A128A110E28831203138C1E42
:10036800B629B729EE2A7A037B04031DBC29BD29C7
:10037800E3291A08F4007408C90049080A128A1106
:1003880055230A128A11013A031DCB29CC29D129F8
:100398000330FA000030FB00E329831203134908F5
:1003A8000A128A1155230A128A11023A031DDD29FD
:1003B800DE29DF29CC290230FA000030FB00313079
:1003C800831203134906031DEA29EB296E2A053017
:1003D8007A067B04031DF129F2296E2A0130C5072C
:1003E8000318C60A0030C607552A1A080A128A11C5
:1003F80055230A128A11F4007408FD000A307D02A0
:100408000318072A082A0D2A0530FA000030FB00D5
:10041800652A0630FA000030FB00652A1A080A121D
:100428008A1155230A128A11F4007408FC000A3054
:100438007C020318202A212A0D2A082A1A080A12DF
:100448008A1155230A128A11F400740883120313BF
:10045800CA000A304A020318322A332A0D2A053004
:10046800FA000030FB000A30F4007408F0007C0841
:100478000A128A112D240A128A11F5006430F60036
:100488007608F0007D080A128A112D240A128A11B2
:100498007507831203134A078500652AC301C4013F
:1004A800652A4408003A03195A2A522A4308003A8E
:1004B8000319F929013A0319122A033A0319222ABE
:1004C800522A013083120313C3070318C40A0030E9
:1004D800C407EE2A32304906031D732A742AE22A19
:1004E80005307A067B04031D7A2A7B2AE22A01302A
:1004F800C5070318C60A0030C607D22A1A080A1206
:100508008A1155230A128A11F4007408FD000A3072
:100518007D020318902A912A0D2A082A1A080A121D
:100528008A1155230A128A11F4007408FC000A3053
:100538007C020318A02AA12A0D2A082A1A080A12DE
:100548008A1155230A128A11F400740883120313BE
:10055800CA000A304A020318B22AB32A0D2A053003
:10056800FA000030FB000A30F4007408F0007C0840
:100578000A128A112D240A128A11F5006430F60035
:100588007608F0007D080A128A112D240A128A11B1
:100598007507831203134A078600652A4408003A40
:1005A8000319D72A522A4308003A0319822A013A22
:1005B8000319922A033A0319A22A522A05307A0605
:1005C8007B04031DE82AE92AEE2A0230FA000030EB
:1005D800FB00EE2A79088A0078088400770E8300E9
:1005E800FE0E7E0E09004534723472346F34723454
:1005F800233431343A34203449346E346734723415
:100608006534733465342034313420346F34203405
:1006180032342034703461347234613420347334A9
:1006280065346C3465346334633469346F346E34E0
:1006380061347234203475346E3420347034753437
:100648006534723474346F342E3400345134553474
:1006580045342034503455344534523454344F34AE
:1006680020344434453453344534413420344334FD
:1006780041344D3449344234413452343F342034C7
:1006880031343A3450344F345234543441342C34A5
:10069800203432343A3450344F345234543442349F
:1006A8000034F2006B2B0030932B0130932B023077
:1006B800932B0330932B0430932B0530932B063068
:1006C800932B0730932B0830932B0930932B720808
:1006D800F000F1017108003A0319732B932B70088D
:1006E800303A0319572B013A0319592B033A0319C6
:1006F8005B2B013A03195D2B073A03195F2B013A6B
:100708000319612B033A0319632B013A0319652B6B
:100718000F3A0319672B013A0319692B932B080029
:10072800831603178801890183160313850186013F
:100738008312031385018601831603130F088F396B
:1007480040388F000F1418121815831603178715D1
:1007580019308316031399009A018312031398170B
:1007680018131816831603139816181383120313F5
:100778008C12831603138C160B178B17080045343D
:1007880073346334723469346234613420346534C8
:100798006C342034763461346C346F3472342034E1
:1007A8006134203469346E34673472346534733498
:1007B80061347234203461346C34203470347534CC
:1007C8006534723474346F343A34003445347234D6
:1007D80072346F347234233432343A342034493426
:1007E8006E34673472346534733465342034643459
:1007F80069346734693474346F347334203464343E
:1008080065342034303420346134203439342E3483
:100818000034831203134C08CE004D08CF001A2C65
:100828000130CE070318CF0A0030CF074E088400E6
:1008380083174F1C83130008031D232C242C142C0E
:100848004C084E02CC004D08031C4D0A4F02CD0047
:100858000800F300F201731C322C332C372C70087B
:10086800F1007108F2070310F00D0310F30C730880
:10087800031D3F2C402C2F2C720808007E088A008C
:100888007F0882000A128A1142240A128A11800003
:10089800840A04087D0603190034FF0A0319FE0AB6
:0208A800462CDC
:04400E00D420FF3F7C
:00000001FF
